{
  "contractName": "Election",
  "abi": [
    {
      "inputs": [],
      "payable": false,
      "stateMutability": "nonpayable",
      "type": "constructor"
    },
    {
      "anonymous": false,
      "inputs": [
        {
          "indexed": false,
          "internalType": "int256",
          "name": "id",
          "type": "int256"
        },
        {
          "indexed": false,
          "internalType": "string",
          "name": "name",
          "type": "string"
        },
        {
          "indexed": false,
          "internalType": "int256",
          "name": "votecount",
          "type": "int256"
        }
      ],
      "name": "elcetionemit",
      "type": "event"
    },
    {
      "constant": true,
      "inputs": [],
      "name": "Candidatecount",
      "outputs": [
        {
          "internalType": "int256",
          "name": "",
          "type": "int256"
        }
      ],
      "payable": false,
      "stateMutability": "view",
      "type": "function"
    },
    {
      "constant": true,
      "inputs": [
        {
          "internalType": "int256",
          "name": "",
          "type": "int256"
        }
      ],
      "name": "Candidates",
      "outputs": [
        {
          "internalType": "int256",
          "name": "id",
          "type": "int256"
        },
        {
          "internalType": "string",
          "name": "name",
          "type": "string"
        },
        {
          "internalType": "int256",
          "name": "votecount",
          "type": "int256"
        }
      ],
      "payable": false,
      "stateMutability": "view",
      "type": "function"
    },
    {
      "constant": true,
      "inputs": [
        {
          "internalType": "address",
          "name": "",
          "type": "address"
        }
      ],
      "name": "votedornot",
      "outputs": [
        {
          "internalType": "bool",
          "name": "",
          "type": "bool"
        }
      ],
      "payable": false,
      "stateMutability": "view",
      "type": "function"
    },
    {
      "constant": false,
      "inputs": [
        {
          "internalType": "string",
          "name": "name",
          "type": "string"
        }
      ],
      "name": "addCandidate",
      "outputs": [],
      "payable": false,
      "stateMutability": "nonpayable",
      "type": "function"
    },
    {
      "constant": false,
      "inputs": [
        {
          "internalType": "int256",
          "name": "id",
          "type": "int256"
        }
      ],
      "name": "vote",
      "outputs": [],
      "payable": false,
      "stateMutability": "nonpayable",
      "type": "function"
    }
  ],
  "bytecode": "0x608060405234801561001057600080fd5b506100556040518060400160405280600381526020017f424a50000000000000000000000000000000000000000000000000000000000081525061009e60201b60201c565b6100996040518060400160405280600881526020017f436f6e677265737300000000000000000000000000000000000000000000000081525061009e60201b60201c565b6101bd565b60008081548092919060010191905055506040518060600160405280600054815260200182815260200160008152506001600080548152602001908152602001600020600082015181600001556020820151816001019080519060200190610107929190610118565b506040820151816002015590505050565b828054600181600116156101000203166002900490600052602060002090601f016020900481019282601f1061015957805160ff1916838001178555610187565b82800160010185558215610187579182015b8281111561018657825182559160200191906001019061016b565b5b5090506101949190610198565b5090565b6101ba91905b808211156101b657600081600090555060010161019e565b5090565b90565b610770806101cc6000396000f3fe608060405234801561001057600080fd5b50600436106100575760003560e01c8063185532881461005c5780631bc57022146101115780633891c3201461016d578063462e91ec1461019b578063dbf5054d14610256575b600080fd5b6100886004803603602081101561007257600080fd5b8101908080359060200190929190505050610274565b6040518084815260200180602001838152602001828103825284818151815260200191508051906020019080838360005b838110156100d45780820151818401526020810190506100b9565b50505050905090810190601f1680156101015780820380516001836020036101000a031916815260200191505b5094505050505060405180910390f35b6101536004803603602081101561012757600080fd5b81019080803573ffffffffffffffffffffffffffffffffffffffff169060200190929190505050610336565b604051808215151515815260200191505060405180910390f35b6101996004803603602081101561018357600080fd5b8101908080359060200190929190505050610356565b005b610254600480360360208110156101b157600080fd5b81019080803590602001906401000000008111156101ce57600080fd5b8201836020820111156101e057600080fd5b8035906020019184600183028401116401000000008311171561020257600080fd5b91908080601f016020809104026020016040519081016040528093929190818152602001838380828437600081840152601f19601f820116905080830192505050505050509192919290505050610616565b005b61025e610690565b6040518082815260200191505060405180910390f35b6001602052806000526040600020600091509050806000015490806001018054600181600116156101000203166002900480601f0160208091040260200160405190810160405280929190818152602001828054600181600116156101000203166002900480156103265780601f106102fb57610100808354040283529160200191610326565b820191906000526020600020905b81548152906001019060200180831161030957829003601f168201915b5050505050908060020154905083565b60026020528060005260406000206000915054906101000a900460ff1681565b600260003373ffffffffffffffffffffffffffffffffffffffff1673ffffffffffffffffffffffffffffffffffffffff16815260200190815260200160002060009054906101000a900460ff1615610416576040517f08c379a00000000000000000000000000000000000000000000000000000000081526004018080602001828103825260168152602001807f796f75206861766520616c726561647920766f7465640000000000000000000081525060200191505060405180910390fd5b6000600160008381526020019081526020016000206000015414156104a3576040517f08c379a00000000000000000000000000000000000000000000000000000000081526004018080602001828103825260118152602001807f696420646f6573206e6f7420657869737400000000000000000000000000000081525060200191505060405180910390fd5b6001806000838152602001908152602001600020600201600082825401925050819055506001600260003373ffffffffffffffffffffffffffffffffffffffff1673ffffffffffffffffffffffffffffffffffffffff16815260200190815260200160002060006101000a81548160ff0219169083151502179055507f7b687ef027ff546f062b0d6376a2460e40d552f1ae73b13e9c81d0aa43387cf98160016000848152602001908152602001600020600101600160008581526020019081526020016000206002015460405180848152602001806020018381526020018281038252848181546001816001161561010002031660029004815260200191508054600181600116156101000203166002900480156106035780601f106105d857610100808354040283529160200191610603565b820191906000526020600020905b8154815290600101906020018083116105e657829003601f168201915b505094505050505060405180910390a150565b6000808154809291906001019190505550604051806060016040528060005481526020018281526020016000815250600160008054815260200190815260200160002060008201518160000155602082015181600101908051906020019061067f929190610696565b506040820151816002015590505050565b60005481565b828054600181600116156101000203166002900490600052602060002090601f016020900481019282601f106106d757805160ff1916838001178555610705565b82800160010185558215610705579182015b828111156107045782518255916020019190600101906106e9565b5b5090506107129190610716565b5090565b61073891905b8082111561073457600081600090555060010161071c565b5090565b9056fea265627a7a723158206932ee979c9471a926c55809d6b2a539664858224f03bd07624e9bc8cc4861f364736f6c63430005100032",
  "source": "pragma solidity ^0.5.16;\r\n\r\ncontract Election{\r\n    \r\n    struct Candidate{\r\n        int id;\r\n        string name;\r\n        int votecount;\r\n    }\r\n    \r\n    int public Candidatecount;\r\n    \r\n    mapping(int=>Candidate) public Candidates;\r\n    mapping(address=>bool) public votedornot;\r\n    constructor() public {\r\n        addCandidate(\"BJP\");\r\n        addCandidate(\"Congress\");\r\n    }\r\n    event elcetionemit(\r\n        int id,\r\n        string name,\r\n        int votecount\r\n        );\r\n    function addCandidate(string memory name) public{\r\n        Candidatecount++;\r\n        Candidates[Candidatecount]=Candidate(Candidatecount,name,0);\r\n    }\r\n      \r\n      function vote(int id) public{\r\n          require(!votedornot[msg.sender],\"you have already voted\");\r\n          require(Candidates[id].id!=0,\"id does not exist\");\r\n          Candidates[id].votecount+=1;\r\n          votedornot[msg.sender]=true;\r\n          emit elcetionemit(id,Candidates[id].name,Candidates[id].votecount);\r\n      }\r\n}",
  "sourcePath": "E:/online_voting/contracts/Elcetion.sol",
  "compiler": {
    "name": "solc",
    "version": "0.5.16+commit.9c3226ce.Emscripten.clang"
  },
  "schemaVersion": "3.3.3",
  "updatedAt": "2021-01-11T10:13:28.743Z",
  "networkType": "ethereum",
  "devdoc": {
    "methods": {}
  },
  "userdoc": {
    "methods": {}
  }
}